{"contracts/Lock.sol":{"UserManagement":{"abi":[{"inputs":[],"name":"getBalance","outputs":[{"internalType":"uint256","name":"","type":"uint256"}],"stateMutability":"view","type":"function"},{"inputs":[],"name":"getTransactions","outputs":[{"components":[{"internalType":"uint256","name":"senderId","type":"uint256"},{"internalType":"uint256","name":"recipientId","type":"uint256"},{"internalType":"uint256","name":"amount","type":"uint256"},{"internalType":"uint256","name":"date","type":"uint256"}],"internalType":"struct UserManagement.Transaction[]","name":"","type":"tuple[]"}],"stateMutability":"view","type":"function"},{"inputs":[{"internalType":"uint256","name":"_uniqueId","type":"uint256"},{"internalType":"string","name":"_name","type":"string"},{"internalType":"string","name":"_fingerprintHash","type":"string"}],"name":"register","outputs":[],"stateMutability":"nonpayable","type":"function"},{"inputs":[{"internalType":"uint256","name":"_recipientId","type":"uint256"},{"internalType":"string","name":"_fingerprintHash","type":"string"}],"name":"transfer","outputs":[],"stateMutability":"payable","type":"function"}],"evm":{"bytecode":{"linkReferences":{},"object":"608060405234801561001057600080fd5b5061155c806100206000396000f3fe60806040526004361061003f5760003560e01c806312065fe01461004457806383920e901461006f5780638d28dda81461009a578063ca32ab86146100c3575b600080fd5b34801561005057600080fd5b506100596100df565b60405161006691906109f0565b60405180910390f35b34801561007b57600080fd5b50610084610182565b6040516100919190610b1e565b60405180910390f35b3480156100a657600080fd5b506100c160048036038101906100bc9190610cc6565b610437565b005b6100dd60048036038101906100d89190610d51565b61068a565b005b6000336000600160008373ffffffffffffffffffffffffffffffffffffffff1673ffffffffffffffffffffffffffffffffffffffff1681526020019081526020016000205403610164576040517f08c379a000000000000000000000000000000000000000000000000000000000815260040161015b90610e0a565b60405180910390fd5b3373ffffffffffffffffffffffffffffffffffffffff163191505090565b6060336000600160008373ffffffffffffffffffffffffffffffffffffffff1673ffffffffffffffffffffffffffffffffffffffff1681526020019081526020016000205403610207576040517f08c379a00000000000000000000000000000000000000000000000000000000081526004016101fe90610e0a565b60405180910390fd5b6000600160003373ffffffffffffffffffffffffffffffffffffffff1673ffffffffffffffffffffffffffffffffffffffff1681526020019081526020016000205490506000805b6002805490508110156102d457826002828154811061027157610270610e2a565b5b90600052602060002090600402016000015414806102b35750826002828154811061029f5761029e610e2a565b5b906000526020600020906004020160010154145b156102c75781806102c390610e88565b9250505b808060010191505061024f565b5060008167ffffffffffffffff8111156102f1576102f0610b9b565b5b60405190808252806020026020018201604052801561032a57816020015b6103176109af565b81526020019060019003908161030f5790505b5090506000915060005b60028054905081101561042c57836002828154811061035657610355610e2a565b5b90600052602060002090600402016000015414806103985750836002828154811061038457610383610e2a565b5b906000526020600020906004020160010154145b1561041f57600281815481106103b1576103b0610e2a565b5b906000526020600020906004020160405180608001604052908160008201548152602001600182015481526020016002820154815260200160038201548152505082848151811061040557610404610e2a565b5b6020026020010181905250828061041b90610e88565b9350505b8080600101915050610334565b508094505050505090565b6000830361047a576040517f08c379a000000000000000000000000000000000000000000000000000000000815260040161047190610f1c565b60405180910390fd5b60008084815260200190815260200160002060020160009054906101000a900460ff16156104dd576040517f08c379a00000000000000000000000000000000000000000000000000000000081526004016104d490610f88565b60405180910390fd5b6000600160003373ffffffffffffffffffffffffffffffffffffffff1673ffffffffffffffffffffffffffffffffffffffff168152602001908152602001600020541461055f576040517f08c379a00000000000000000000000000000000000000000000000000000000081526004016105569061101a565b60405180910390fd5b60405180608001604052803373ffffffffffffffffffffffffffffffffffffffff1681526020018381526020016001151581526020018281525060008085815260200190815260200160002060008201518160000160006101000a81548173ffffffffffffffffffffffffffffffffffffffff021916908373ffffffffffffffffffffffffffffffffffffffff16021790555060208201518160010190816106079190611251565b5060408201518160020160006101000a81548160ff021916908315150217905550606082015181600301908161063d9190611251565b5090505082600160003373ffffffffffffffffffffffffffffffffffffffff1673ffffffffffffffffffffffffffffffffffffffff16815260200190815260200160002081905550505050565b336000600160008373ffffffffffffffffffffffffffffffffffffffff1673ffffffffffffffffffffffffffffffffffffffff168152602001908152602001600020540361070d576040517f08c379a000000000000000000000000000000000000000000000000000000000815260040161070490610e0a565b60405180910390fd5b8260008082815260200190815260200160002060020160009054906101000a900460ff16610770576040517f08c379a000000000000000000000000000000000000000000000000000000000815260040161076790610e0a565b60405180910390fd5b6000600160003373ffffffffffffffffffffffffffffffffffffffff1673ffffffffffffffffffffffffffffffffffffffff168152602001908152602001600020549050600080600087815260200190815260200160002060000160009054906101000a900473ffffffffffffffffffffffffffffffffffffffff169050846040516020016107ff9190611386565b6040516020818303038152906040528051906020012060008084815260200190815260200160002060030160405160200161083a919061142c565b6040516020818303038152906040528051906020012014610890576040517f08c379a00000000000000000000000000000000000000000000000000000000081526004016108879061149a565b60405180910390fd5b3373ffffffffffffffffffffffffffffffffffffffff16313411156108ea576040517f08c379a00000000000000000000000000000000000000000000000000000000081526004016108e190611506565b60405180910390fd5b8073ffffffffffffffffffffffffffffffffffffffff166108fc349081150290604051600060405180830381858888f19350505050158015610930573d6000803e3d6000fd5b5060026040518060800160405280848152602001888152602001348152602001428152509080600181540180825580915050600190039060005260206000209060040201600090919091909150600082015181600001556020820151816001015560408201518160020155606082015181600301555050505050505050565b6040518060800160405280600081526020016000815260200160008152602001600081525090565b6000819050919050565b6109ea816109d7565b82525050565b6000602082019050610a0560008301846109e1565b92915050565b600081519050919050565b600082825260208201905092915050565b6000819050602082019050919050565b610a40816109d7565b82525050565b608082016000820151610a5c6000850182610a37565b506020820151610a6f6020850182610a37565b506040820151610a826040850182610a37565b506060820151610a956060850182610a37565b50505050565b6000610aa78383610a46565b60808301905092915050565b6000602082019050919050565b6000610acb82610a0b565b610ad58185610a16565b9350610ae083610a27565b8060005b83811015610b11578151610af88882610a9b565b9750610b0383610ab3565b925050600181019050610ae4565b5085935050505092915050565b60006020820190508181036000830152610b388184610ac0565b905092915050565b6000604051905090565b600080fd5b600080fd5b610b5d816109d7565b8114610b6857600080fd5b50565b600081359050610b7a81610b54565b92915050565b600080fd5b600080fd5b6000601f19601f8301169050919050565b7f4e487b7100000000000000000000000000000000000000000000000000000000600052604160045260246000fd5b610bd382610b8a565b810181811067ffffffffffffffff82111715610bf257610bf1610b9b565b5b80604052505050565b6000610c05610b40565b9050610c118282610bca565b919050565b600067ffffffffffffffff821115610c3157610c30610b9b565b5b610c3a82610b8a565b9050602081019050919050565b82818337600083830152505050565b6000610c69610c6484610c16565b610bfb565b905082815260208101848484011115610c8557610c84610b85565b5b610c90848285610c47565b509392505050565b600082601f830112610cad57610cac610b80565b5b8135610cbd848260208601610c56565b91505092915050565b600080600060608486031215610cdf57610cde610b4a565b5b6000610ced86828701610b6b565b935050602084013567ffffffffffffffff811115610d0e57610d0d610b4f565b5b610d1a86828701610c98565b925050604084013567ffffffffffffffff811115610d3b57610d3a610b4f565b5b610d4786828701610c98565b9150509250925092565b60008060408385031215610d6857610d67610b4a565b5b6000610d7685828601610b6b565b925050602083013567ffffffffffffffff811115610d9757610d96610b4f565b5b610da385828601610c98565b9150509250929050565b600082825260208201905092915050565b7f55736572206e6f74207265676973746572656400000000000000000000000000600082015250565b6000610df4601383610dad565b9150610dff82610dbe565b602082019050919050565b60006020820190508181036000830152610e2381610de7565b9050919050565b7f4e487b7100000000000000000000000000000000000000000000000000000000600052603260045260246000fd5b7f4e487b7100000000000000000000000000000000000000000000000000000000600052601160045260246000fd5b6000610e93826109d7565b91507fffffffffffffffffffffffffffffffffffffffffffffffffffffffffffffffff8203610ec557610ec4610e59565b5b600182019050919050565b7f41616468616172204964206e6f7420616c6c6f77656400000000000000000000600082015250565b6000610f06601683610dad565b9150610f1182610ed0565b602082019050919050565b60006020820190508181036000830152610f3581610ef9565b9050919050565b7f416164686172207573657220616c726561647920726567697374657265640000600082015250565b6000610f72601e83610dad565b9150610f7d82610f3c565b602082019050919050565b60006020820190508181036000830152610fa181610f65565b9050919050565b7f596f7572206164647265737320697320616c726561647920726567697374657260008201527f6564000000000000000000000000000000000000000000000000000000000000602082015250565b6000611004602283610dad565b915061100f82610fa8565b604082019050919050565b6000602082019050818103600083015261103381610ff7565b9050919050565b600081519050919050565b7f4e487b7100000000000000000000000000000000000000000000000000000000600052602260045260246000fd5b6000600282049050600182168061108c57607f821691505b60208210810361109f5761109e611045565b5b50919050565b60008190508160005260206000209050919050565b60006020601f8301049050919050565b600082821b905092915050565b6000600883026111077fffffffffffffffffffffffffffffffffffffffffffffffffffffffffffffffff826110ca565b61111186836110ca565b95508019841693508086168417925050509392505050565b6000819050919050565b600061114e611149611144846109d7565b611129565b6109d7565b9050919050565b6000819050919050565b61116883611133565b61117c61117482611155565b8484546110d7565b825550505050565b600090565b611191611184565b61119c81848461115f565b505050565b5b818110156111c0576111b5600082611189565b6001810190506111a2565b5050565b601f821115611205576111d6816110a5565b6111df846110ba565b810160208510156111ee578190505b6112026111fa856110ba565b8301826111a1565b50505b505050565b600082821c905092915050565b60006112286000198460080261120a565b1980831691505092915050565b60006112418383611217565b9150826002028217905092915050565b61125a8261103a565b67ffffffffffffffff81111561127357611272610b9b565b5b61127d8254611074565b6112888282856111c4565b600060209050601f8311600181146112bb57600084156112a9578287015190505b6112b38582611235565b86555061131b565b601f1984166112c9866110a5565b60005b828110156112f1578489015182556001820191506020850194506020810190506112cc565b8683101561130e578489015161130a601f891682611217565b8355505b6001600288020188555050505b505050505050565b60005b83811015611341578082015181840152602081019050611326565b60008484015250505050565b60006113588261103a565b6113628185610dad565b9350611372818560208601611323565b61137b81610b8a565b840191505092915050565b600060208201905081810360008301526113a0818461134d565b905092915050565b600081546113b581611074565b6113bf8186610dad565b945060018216600081146113da57600181146113f057611423565b60ff198316865281151560200286019350611423565b6113f9856110a5565b60005b8381101561141b578154818901526001820191506020810190506113fc565b808801955050505b50505092915050565b6000602082019050818103600083015261144681846113a8565b905092915050565b7f46696e6765727072696e7420566572696669636174696f6e204661696c656400600082015250565b6000611484601f83610dad565b915061148f8261144e565b602082019050919050565b600060208201905081810360008301526114b381611477565b9050919050565b7f496e73756666696369656e742062616c616e6365000000000000000000000000600082015250565b60006114f0601483610dad565b91506114fb826114ba565b602082019050919050565b6000602082019050818103600083015261151f816114e3565b905091905056fea2646970667358221220b8e6b74d8fa5a62980c55cf155740a90d6b959a388f5850e1bc2415824ca7ec564736f6c63430008180033","opcodes":"PUSH1 0x80 PUSH1 0x40 MSTORE CALLVALUE DUP1 ISZERO PUSH2 0x10 JUMPI PUSH1 0x0 DUP1 REVERT JUMPDEST POP PUSH2 0x155C DUP1 PUSH2 0x20 PUSH1 0x0 CODECOPY PUSH1 0x0 RETURN INVALID PUSH1 0x80 PUSH1 0x40 MSTORE PUSH1 0x4 CALLDATASIZE LT PUSH2 0x3F JUMPI PUSH1 0x0 CALLDATALOAD PUSH1 0xE0 SHR DUP1 PUSH4 0x12065FE0 EQ PUSH2 0x44 JUMPI DUP1 PUSH4 0x83920E90 EQ PUSH2 0x6F JUMPI DUP1 PUSH4 0x8D28DDA8 EQ PUSH2 0x9A JUMPI DUP1 PUSH4 0xCA32AB86 EQ PUSH2 0xC3 JUMPI JUMPDEST PUSH1 0x0 DUP1 REVERT JUMPDEST CALLVALUE DUP1 ISZERO PUSH2 0x50 JUMPI PUSH1 0x0 DUP1 REVERT JUMPDEST POP PUSH2 0x59 PUSH2 0xDF JUMP JUMPDEST PUSH1 0x40 MLOAD PUSH2 0x66 SWAP2 SWAP1 PUSH2 0x9F0 JUMP JUMPDEST PUSH1 0x40 MLOAD DUP1 SWAP2 SUB SWAP1 RETURN JUMPDEST CALLVALUE DUP1 ISZERO PUSH2 0x7B JUMPI PUSH1 0x0 DUP1 REVERT JUMPDEST POP PUSH2 0x84 PUSH2 0x182 JUMP JUMPDEST PUSH1 0x40 MLOAD PUSH2 0x91 SWAP2 SWAP1 PUSH2 0xB1E JUMP JUMPDEST PUSH1 0x40 MLOAD DUP1 SWAP2 SUB SWAP1 RETURN JUMPDEST CALLVALUE DUP1 ISZERO PUSH2 0xA6 JUMPI PUSH1 0x0 DUP1 REVERT JUMPDEST POP PUSH2 0xC1 PUSH1 0x4 DUP1 CALLDATASIZE SUB DUP2 ADD SWAP1 PUSH2 0xBC SWAP2 SWAP1 PUSH2 0xCC6 JUMP JUMPDEST PUSH2 0x437 JUMP JUMPDEST STOP JUMPDEST PUSH2 0xDD PUSH1 0x4 DUP1 CALLDATASIZE SUB DUP2 ADD SWAP1 PUSH2 0xD8 SWAP2 SWAP1 PUSH2 0xD51 JUMP JUMPDEST PUSH2 0x68A JUMP JUMPDEST STOP JUMPDEST PUSH1 0x0 CALLER PUSH1 0x0 PUSH1 0x1 PUSH1 0x0 DUP4 PUSH20 0xFFFFFFFFFFFFFFFFFFFFFFFFFFFFFFFFFFFFFFFF AND PUSH20 0xFFFFFFFFFFFFFFFFFFFFFFFFFFFFFFFFFFFFFFFF AND DUP2 MSTORE PUSH1 0x20 ADD SWAP1 DUP2 MSTORE PUSH1 0x20 ADD PUSH1 0x0 KECCAK256 SLOAD SUB PUSH2 0x164 JUMPI PUSH1 0x40 MLOAD PUSH32 0x8C379A000000000000000000000000000000000000000000000000000000000 DUP2 MSTORE PUSH1 0x4 ADD PUSH2 0x15B SWAP1 PUSH2 0xE0A JUMP JUMPDEST PUSH1 0x40 MLOAD DUP1 SWAP2 SUB SWAP1 REVERT JUMPDEST CALLER PUSH20 0xFFFFFFFFFFFFFFFFFFFFFFFFFFFFFFFFFFFFFFFF AND BALANCE SWAP2 POP POP SWAP1 JUMP JUMPDEST PUSH1 0x60 CALLER PUSH1 0x0 PUSH1 0x1 PUSH1 0x0 DUP4 PUSH20 0xFFFFFFFFFFFFFFFFFFFFFFFFFFFFFFFFFFFFFFFF AND PUSH20 0xFFFFFFFFFFFFFFFFFFFFFFFFFFFFFFFFFFFFFFFF AND DUP2 MSTORE PUSH1 0x20 ADD SWAP1 DUP2 MSTORE PUSH1 0x20 ADD PUSH1 0x0 KECCAK256 SLOAD SUB PUSH2 0x207 JUMPI PUSH1 0x40 MLOAD PUSH32 0x8C379A000000000000000000000000000000000000000000000000000000000 DUP2 MSTORE PUSH1 0x4 ADD PUSH2 0x1FE SWAP1 PUSH2 0xE0A JUMP JUMPDEST PUSH1 0x40 MLOAD DUP1 SWAP2 SUB SWAP1 REVERT JUMPDEST PUSH1 0x0 PUSH1 0x1 PUSH1 0x0 CALLER PUSH20 0xFFFFFFFFFFFFFFFFFFFFFFFFFFFFFFFFFFFFFFFF AND PUSH20 0xFFFFFFFFFFFFFFFFFFFFFFFFFFFFFFFFFFFFFFFF AND DUP2 MSTORE PUSH1 0x20 ADD SWAP1 DUP2 MSTORE PUSH1 0x20 ADD PUSH1 0x0 KECCAK256 SLOAD SWAP1 POP PUSH1 0x0 DUP1 JUMPDEST PUSH1 0x2 DUP1 SLOAD SWAP1 POP DUP2 LT ISZERO PUSH2 0x2D4 JUMPI DUP3 PUSH1 0x2 DUP3 DUP2 SLOAD DUP2 LT PUSH2 0x271 JUMPI PUSH2 0x270 PUSH2 0xE2A JUMP JUMPDEST JUMPDEST SWAP1 PUSH1 0x0 MSTORE PUSH1 0x20 PUSH1 0x0 KECCAK256 SWAP1 PUSH1 0x4 MUL ADD PUSH1 0x0 ADD SLOAD EQ DUP1 PUSH2 0x2B3 JUMPI POP DUP3 PUSH1 0x2 DUP3 DUP2 SLOAD DUP2 LT PUSH2 0x29F JUMPI PUSH2 0x29E PUSH2 0xE2A JUMP JUMPDEST JUMPDEST SWAP1 PUSH1 0x0 MSTORE PUSH1 0x20 PUSH1 0x0 KECCAK256 SWAP1 PUSH1 0x4 MUL ADD PUSH1 0x1 ADD SLOAD EQ JUMPDEST ISZERO PUSH2 0x2C7 JUMPI DUP2 DUP1 PUSH2 0x2C3 SWAP1 PUSH2 0xE88 JUMP JUMPDEST SWAP3 POP POP JUMPDEST DUP1 DUP1 PUSH1 0x1 ADD SWAP2 POP POP PUSH2 0x24F JUMP JUMPDEST POP PUSH1 0x0 DUP2 PUSH8 0xFFFFFFFFFFFFFFFF DUP2 GT ISZERO PUSH2 0x2F1 JUMPI PUSH2 0x2F0 PUSH2 0xB9B JUMP JUMPDEST JUMPDEST PUSH1 0x40 MLOAD SWAP1 DUP1 DUP3 MSTORE DUP1 PUSH1 0x20 MUL PUSH1 0x20 ADD DUP3 ADD PUSH1 0x40 MSTORE DUP1 ISZERO PUSH2 0x32A JUMPI DUP2 PUSH1 0x20 ADD JUMPDEST PUSH2 0x317 PUSH2 0x9AF JUMP JUMPDEST DUP2 MSTORE PUSH1 0x20 ADD SWAP1 PUSH1 0x1 SWAP1 SUB SWAP1 DUP2 PUSH2 0x30F JUMPI SWAP1 POP JUMPDEST POP SWAP1 POP PUSH1 0x0 SWAP2 POP PUSH1 0x0 JUMPDEST PUSH1 0x2 DUP1 SLOAD SWAP1 POP DUP2 LT ISZERO PUSH2 0x42C JUMPI DUP4 PUSH1 0x2 DUP3 DUP2 SLOAD DUP2 LT PUSH2 0x356 JUMPI PUSH2 0x355 PUSH2 0xE2A JUMP JUMPDEST JUMPDEST SWAP1 PUSH1 0x0 MSTORE PUSH1 0x20 PUSH1 0x0 KECCAK256 SWAP1 PUSH1 0x4 MUL ADD PUSH1 0x0 ADD SLOAD EQ DUP1 PUSH2 0x398 JUMPI POP DUP4 PUSH1 0x2 DUP3 DUP2 SLOAD DUP2 LT PUSH2 0x384 JUMPI PUSH2 0x383 PUSH2 0xE2A JUMP JUMPDEST JUMPDEST SWAP1 PUSH1 0x0 MSTORE PUSH1 0x20 PUSH1 0x0 KECCAK256 SWAP1 PUSH1 0x4 MUL ADD PUSH1 0x1 ADD SLOAD EQ JUMPDEST ISZERO PUSH2 0x41F JUMPI PUSH1 0x2 DUP2 DUP2 SLOAD DUP2 LT PUSH2 0x3B1 JUMPI PUSH2 0x3B0 PUSH2 0xE2A JUMP JUMPDEST JUMPDEST SWAP1 PUSH1 0x0 MSTORE PUSH1 0x20 PUSH1 0x0 KECCAK256 SWAP1 PUSH1 0x4 MUL ADD PUSH1 0x40 MLOAD DUP1 PUSH1 0x80 ADD PUSH1 0x40 MSTORE SWAP1 DUP2 PUSH1 0x0 DUP3 ADD SLOAD DUP2 MSTORE PUSH1 0x20 ADD PUSH1 0x1 DUP3 ADD SLOAD DUP2 MSTORE PUSH1 0x20 ADD PUSH1 0x2 DUP3 ADD SLOAD DUP2 MSTORE PUSH1 0x20 ADD PUSH1 0x3 DUP3 ADD SLOAD DUP2 MSTORE POP POP DUP3 DUP5 DUP2 MLOAD DUP2 LT PUSH2 0x405 JUMPI PUSH2 0x404 PUSH2 0xE2A JUMP JUMPDEST JUMPDEST PUSH1 0x20 MUL PUSH1 0x20 ADD ADD DUP2 SWAP1 MSTORE POP DUP3 DUP1 PUSH2 0x41B SWAP1 PUSH2 0xE88 JUMP JUMPDEST SWAP4 POP POP JUMPDEST DUP1 DUP1 PUSH1 0x1 ADD SWAP2 POP POP PUSH2 0x334 JUMP JUMPDEST POP DUP1 SWAP5 POP POP POP POP POP SWAP1 JUMP JUMPDEST PUSH1 0x0 DUP4 SUB PUSH2 0x47A JUMPI PUSH1 0x40 MLOAD PUSH32 0x8C379A000000000000000000000000000000000000000000000000000000000 DUP2 MSTORE PUSH1 0x4 ADD PUSH2 0x471 SWAP1 PUSH2 0xF1C JUMP JUMPDEST PUSH1 0x40 MLOAD DUP1 SWAP2 SUB SWAP1 REVERT JUMPDEST PUSH1 0x0 DUP1 DUP5 DUP2 MSTORE PUSH1 0x20 ADD SWAP1 DUP2 MSTORE PUSH1 0x20 ADD PUSH1 0x0 KECCAK256 PUSH1 0x2 ADD PUSH1 0x0 SWAP1 SLOAD SWAP1 PUSH2 0x100 EXP SWAP1 DIV PUSH1 0xFF AND ISZERO PUSH2 0x4DD JUMPI PUSH1 0x40 MLOAD PUSH32 0x8C379A000000000000000000000000000000000000000000000000000000000 DUP2 MSTORE PUSH1 0x4 ADD PUSH2 0x4D4 SWAP1 PUSH2 0xF88 JUMP JUMPDEST PUSH1 0x40 MLOAD DUP1 SWAP2 SUB SWAP1 REVERT JUMPDEST PUSH1 0x0 PUSH1 0x1 PUSH1 0x0 CALLER PUSH20 0xFFFFFFFFFFFFFFFFFFFFFFFFFFFFFFFFFFFFFFFF AND PUSH20 0xFFFFFFFFFFFFFFFFFFFFFFFFFFFFFFFFFFFFFFFF AND DUP2 MSTORE PUSH1 0x20 ADD SWAP1 DUP2 MSTORE PUSH1 0x20 ADD PUSH1 0x0 KECCAK256 SLOAD EQ PUSH2 0x55F JUMPI PUSH1 0x40 MLOAD PUSH32 0x8C379A000000000000000000000000000000000000000000000000000000000 DUP2 MSTORE PUSH1 0x4 ADD PUSH2 0x556 SWAP1 PUSH2 0x101A JUMP JUMPDEST PUSH1 0x40 MLOAD DUP1 SWAP2 SUB SWAP1 REVERT JUMPDEST PUSH1 0x40 MLOAD DUP1 PUSH1 0x80 ADD PUSH1 0x40 MSTORE DUP1 CALLER PUSH20 0xFFFFFFFFFFFFFFFFFFFFFFFFFFFFFFFFFFFFFFFF AND DUP2 MSTORE PUSH1 0x20 ADD DUP4 DUP2 MSTORE PUSH1 0x20 ADD PUSH1 0x1 ISZERO ISZERO DUP2 MSTORE PUSH1 0x20 ADD DUP3 DUP2 MSTORE POP PUSH1 0x0 DUP1 DUP6 DUP2 MSTORE PUSH1 0x20 ADD SWAP1 DUP2 MSTORE PUSH1 0x20 ADD PUSH1 0x0 KECCAK256 PUSH1 0x0 DUP3 ADD MLOAD DUP2 PUSH1 0x0 ADD PUSH1 0x0 PUSH2 0x100 EXP DUP2 SLOAD DUP2 PUSH20 0xFFFFFFFFFFFFFFFFFFFFFFFFFFFFFFFFFFFFFFFF MUL NOT AND SWAP1 DUP4 PUSH20 0xFFFFFFFFFFFFFFFFFFFFFFFFFFFFFFFFFFFFFFFF AND MUL OR SWAP1 SSTORE POP PUSH1 0x20 DUP3 ADD MLOAD DUP2 PUSH1 0x1 ADD SWAP1 DUP2 PUSH2 0x607 SWAP2 SWAP1 PUSH2 0x1251 JUMP JUMPDEST POP PUSH1 0x40 DUP3 ADD MLOAD DUP2 PUSH1 0x2 ADD PUSH1 0x0 PUSH2 0x100 EXP DUP2 SLOAD DUP2 PUSH1 0xFF MUL NOT AND SWAP1 DUP4 ISZERO ISZERO MUL OR SWAP1 SSTORE POP PUSH1 0x60 DUP3 ADD MLOAD DUP2 PUSH1 0x3 ADD SWAP1 DUP2 PUSH2 0x63D SWAP2 SWAP1 PUSH2 0x1251 JUMP JUMPDEST POP SWAP1 POP POP DUP3 PUSH1 0x1 PUSH1 0x0 CALLER PUSH20 0xFFFFFFFFFFFFFFFFFFFFFFFFFFFFFFFFFFFFFFFF AND PUSH20 0xFFFFFFFFFFFFFFFFFFFFFFFFFFFFFFFFFFFFFFFF AND DUP2 MSTORE PUSH1 0x20 ADD SWAP1 DUP2 MSTORE PUSH1 0x20 ADD PUSH1 0x0 KECCAK256 DUP2 SWAP1 SSTORE POP POP POP POP JUMP JUMPDEST CALLER PUSH1 0x0 PUSH1 0x1 PUSH1 0x0 DUP4 PUSH20 0xFFFFFFFFFFFFFFFFFFFFFFFFFFFFFFFFFFFFFFFF AND PUSH20 0xFFFFFFFFFFFFFFFFFFFFFFFFFFFFFFFFFFFFFFFF AND DUP2 MSTORE PUSH1 0x20 ADD SWAP1 DUP2 MSTORE PUSH1 0x20 ADD PUSH1 0x0 KECCAK256 SLOAD SUB PUSH2 0x70D JUMPI PUSH1 0x40 MLOAD PUSH32 0x8C379A000000000000000000000000000000000000000000000000000000000 DUP2 MSTORE PUSH1 0x4 ADD PUSH2 0x704 SWAP1 PUSH2 0xE0A JUMP JUMPDEST PUSH1 0x40 MLOAD DUP1 SWAP2 SUB SWAP1 REVERT JUMPDEST DUP3 PUSH1 0x0 DUP1 DUP3 DUP2 MSTORE PUSH1 0x20 ADD SWAP1 DUP2 MSTORE PUSH1 0x20 ADD PUSH1 0x0 KECCAK256 PUSH1 0x2 ADD PUSH1 0x0 SWAP1 SLOAD SWAP1 PUSH2 0x100 EXP SWAP1 DIV PUSH1 0xFF AND PUSH2 0x770 JUMPI PUSH1 0x40 MLOAD PUSH32 0x8C379A000000000000000000000000000000000000000000000000000000000 DUP2 MSTORE PUSH1 0x4 ADD PUSH2 0x767 SWAP1 PUSH2 0xE0A JUMP JUMPDEST PUSH1 0x40 MLOAD DUP1 SWAP2 SUB SWAP1 REVERT JUMPDEST PUSH1 0x0 PUSH1 0x1 PUSH1 0x0 CALLER PUSH20 0xFFFFFFFFFFFFFFFFFFFFFFFFFFFFFFFFFFFFFFFF AND PUSH20 0xFFFFFFFFFFFFFFFFFFFFFFFFFFFFFFFFFFFFFFFF AND DUP2 MSTORE PUSH1 0x20 ADD SWAP1 DUP2 MSTORE PUSH1 0x20 ADD PUSH1 0x0 KECCAK256 SLOAD SWAP1 POP PUSH1 0x0 DUP1 PUSH1 0x0 DUP8 DUP2 MSTORE PUSH1 0x20 ADD SWAP1 DUP2 MSTORE PUSH1 0x20 ADD PUSH1 0x0 KECCAK256 PUSH1 0x0 ADD PUSH1 0x0 SWAP1 SLOAD SWAP1 PUSH2 0x100 EXP SWAP1 DIV PUSH20 0xFFFFFFFFFFFFFFFFFFFFFFFFFFFFFFFFFFFFFFFF AND SWAP1 POP DUP5 PUSH1 0x40 MLOAD PUSH1 0x20 ADD PUSH2 0x7FF SWAP2 SWAP1 PUSH2 0x1386 JUMP JUMPDEST PUSH1 0x40 MLOAD PUSH1 0x20 DUP2 DUP4 SUB SUB DUP2 MSTORE SWAP1 PUSH1 0x40 MSTORE DUP1 MLOAD SWAP1 PUSH1 0x20 ADD KECCAK256 PUSH1 0x0 DUP1 DUP5 DUP2 MSTORE PUSH1 0x20 ADD SWAP1 DUP2 MSTORE PUSH1 0x20 ADD PUSH1 0x0 KECCAK256 PUSH1 0x3 ADD PUSH1 0x40 MLOAD PUSH1 0x20 ADD PUSH2 0x83A SWAP2 SWAP1 PUSH2 0x142C JUMP JUMPDEST PUSH1 0x40 MLOAD PUSH1 0x20 DUP2 DUP4 SUB SUB DUP2 MSTORE SWAP1 PUSH1 0x40 MSTORE DUP1 MLOAD SWAP1 PUSH1 0x20 ADD KECCAK256 EQ PUSH2 0x890 JUMPI PUSH1 0x40 MLOAD PUSH32 0x8C379A000000000000000000000000000000000000000000000000000000000 DUP2 MSTORE PUSH1 0x4 ADD PUSH2 0x887 SWAP1 PUSH2 0x149A JUMP JUMPDEST PUSH1 0x40 MLOAD DUP1 SWAP2 SUB SWAP1 REVERT JUMPDEST CALLER PUSH20 0xFFFFFFFFFFFFFFFFFFFFFFFFFFFFFFFFFFFFFFFF AND BALANCE CALLVALUE GT ISZERO PUSH2 0x8EA JUMPI PUSH1 0x40 MLOAD PUSH32 0x8C379A000000000000000000000000000000000000000000000000000000000 DUP2 MSTORE PUSH1 0x4 ADD PUSH2 0x8E1 SWAP1 PUSH2 0x1506 JUMP JUMPDEST PUSH1 0x40 MLOAD DUP1 SWAP2 SUB SWAP1 REVERT JUMPDEST DUP1 PUSH20 0xFFFFFFFFFFFFFFFFFFFFFFFFFFFFFFFFFFFFFFFF AND PUSH2 0x8FC CALLVALUE SWAP1 DUP2 ISZERO MUL SWAP1 PUSH1 0x40 MLOAD PUSH1 0x0 PUSH1 0x40 MLOAD DUP1 DUP4 SUB DUP2 DUP6 DUP9 DUP9 CALL SWAP4 POP POP POP POP ISZERO DUP1 ISZERO PUSH2 0x930 JUMPI RETURNDATASIZE PUSH1 0x0 DUP1 RETURNDATACOPY RETURNDATASIZE PUSH1 0x0 REVERT JUMPDEST POP PUSH1 0x2 PUSH1 0x40 MLOAD DUP1 PUSH1 0x80 ADD PUSH1 0x40 MSTORE DUP1 DUP5 DUP2 MSTORE PUSH1 0x20 ADD DUP9 DUP2 MSTORE PUSH1 0x20 ADD CALLVALUE DUP2 MSTORE PUSH1 0x20 ADD TIMESTAMP DUP2 MSTORE POP SWAP1 DUP1 PUSH1 0x1 DUP2 SLOAD ADD DUP1 DUP3 SSTORE DUP1 SWAP2 POP POP PUSH1 0x1 SWAP1 SUB SWAP1 PUSH1 0x0 MSTORE PUSH1 0x20 PUSH1 0x0 KECCAK256 SWAP1 PUSH1 0x4 MUL ADD PUSH1 0x0 SWAP1 SWAP2 SWAP1 SWAP2 SWAP1 SWAP2 POP PUSH1 0x0 DUP3 ADD MLOAD DUP2 PUSH1 0x0 ADD SSTORE PUSH1 0x20 DUP3 ADD MLOAD DUP2 PUSH1 0x1 ADD SSTORE PUSH1 0x40 DUP3 ADD MLOAD DUP2 PUSH1 0x2 ADD SSTORE PUSH1 0x60 DUP3 ADD MLOAD DUP2 PUSH1 0x3 ADD SSTORE POP POP POP POP POP POP POP POP JUMP JUMPDEST PUSH1 0x40 MLOAD DUP1 PUSH1 0x80 ADD PUSH1 0x40 MSTORE DUP1 PUSH1 0x0 DUP2 MSTORE PUSH1 0x20 ADD PUSH1 0x0 DUP2 MSTORE PUSH1 0x20 ADD PUSH1 0x0 DUP2 MSTORE PUSH1 0x20 ADD PUSH1 0x0 DUP2 MSTORE POP SWAP1 JUMP JUMPDEST PUSH1 0x0 DUP2 SWAP1 POP SWAP2 SWAP1 POP JUMP JUMPDEST PUSH2 0x9EA DUP2 PUSH2 0x9D7 JUMP JUMPDEST DUP3 MSTORE POP POP JUMP JUMPDEST PUSH1 0x0 PUSH1 0x20 DUP3 ADD SWAP1 POP PUSH2 0xA05 PUSH1 0x0 DUP4 ADD DUP5 PUSH2 0x9E1 JUMP JUMPDEST SWAP3 SWAP2 POP POP JUMP JUMPDEST PUSH1 0x0 DUP2 MLOAD SWAP1 POP SWAP2 SWAP1 POP JUMP JUMPDEST PUSH1 0x0 DUP3 DUP3 MSTORE PUSH1 0x20 DUP3 ADD SWAP1 POP SWAP3 SWAP2 POP POP JUMP JUMPDEST PUSH1 0x0 DUP2 SWAP1 POP PUSH1 0x20 DUP3 ADD SWAP1 POP SWAP2 SWAP1 POP JUMP JUMPDEST PUSH2 0xA40 DUP2 PUSH2 0x9D7 JUMP JUMPDEST DUP3 MSTORE POP POP JUMP JUMPDEST PUSH1 0x80 DUP3 ADD PUSH1 0x0 DUP3 ADD MLOAD PUSH2 0xA5C PUSH1 0x0 DUP6 ADD DUP3 PUSH2 0xA37 JUMP JUMPDEST POP PUSH1 0x20 DUP3 ADD MLOAD PUSH2 0xA6F PUSH1 0x20 DUP6 ADD DUP3 PUSH2 0xA37 JUMP JUMPDEST POP PUSH1 0x40 DUP3 ADD MLOAD PUSH2 0xA82 PUSH1 0x40 DUP6 ADD DUP3 PUSH2 0xA37 JUMP JUMPDEST POP PUSH1 0x60 DUP3 ADD MLOAD PUSH2 0xA95 PUSH1 0x60 DUP6 ADD DUP3 PUSH2 0xA37 JUMP JUMPDEST POP POP POP POP JUMP JUMPDEST PUSH1 0x0 PUSH2 0xAA7 DUP4 DUP4 PUSH2 0xA46 JUMP JUMPDEST PUSH1 0x80 DUP4 ADD SWAP1 POP SWAP3 SWAP2 POP POP JUMP JUMPDEST PUSH1 0x0 PUSH1 0x20 DUP3 ADD SWAP1 POP SWAP2 SWAP1 POP JUMP JUMPDEST PUSH1 0x0 PUSH2 0xACB DUP3 PUSH2 0xA0B JUMP JUMPDEST PUSH2 0xAD5 DUP2 DUP6 PUSH2 0xA16 JUMP JUMPDEST SWAP4 POP PUSH2 0xAE0 DUP4 PUSH2 0xA27 JUMP JUMPDEST DUP1 PUSH1 0x0 JUMPDEST DUP4 DUP2 LT ISZERO PUSH2 0xB11 JUMPI DUP2 MLOAD PUSH2 0xAF8 DUP9 DUP3 PUSH2 0xA9B JUMP JUMPDEST SWAP8 POP PUSH2 0xB03 DUP4 PUSH2 0xAB3 JUMP JUMPDEST SWAP3 POP POP PUSH1 0x1 DUP2 ADD SWAP1 POP PUSH2 0xAE4 JUMP JUMPDEST POP DUP6 SWAP4 POP POP POP POP SWAP3 SWAP2 POP POP JUMP JUMPDEST PUSH1 0x0 PUSH1 0x20 DUP3 ADD SWAP1 POP DUP2 DUP2 SUB PUSH1 0x0 DUP4 ADD MSTORE PUSH2 0xB38 DUP2 DUP5 PUSH2 0xAC0 JUMP JUMPDEST SWAP1 POP SWAP3 SWAP2 POP POP JUMP JUMPDEST PUSH1 0x0 PUSH1 0x40 MLOAD SWAP1 POP SWAP1 JUMP JUMPDEST PUSH1 0x0 DUP1 REVERT JUMPDEST PUSH1 0x0 DUP1 REVERT JUMPDEST PUSH2 0xB5D DUP2 PUSH2 0x9D7 JUMP JUMPDEST DUP2 EQ PUSH2 0xB68 JUMPI PUSH1 0x0 DUP1 REVERT JUMPDEST POP JUMP JUMPDEST PUSH1 0x0 DUP2 CALLDATALOAD SWAP1 POP PUSH2 0xB7A DUP2 PUSH2 0xB54 JUMP JUMPDEST SWAP3 SWAP2 POP POP JUMP JUMPDEST PUSH1 0x0 DUP1 REVERT JUMPDEST PUSH1 0x0 DUP1 REVERT JUMPDEST PUSH1 0x0 PUSH1 0x1F NOT PUSH1 0x1F DUP4 ADD AND SWAP1 POP SWAP2 SWAP1 POP JUMP JUMPDEST PUSH32 0x4E487B7100000000000000000000000000000000000000000000000000000000 PUSH1 0x0 MSTORE PUSH1 0x41 PUSH1 0x4 MSTORE PUSH1 0x24 PUSH1 0x0 REVERT JUMPDEST PUSH2 0xBD3 DUP3 PUSH2 0xB8A JUMP JUMPDEST DUP2 ADD DUP2 DUP2 LT PUSH8 0xFFFFFFFFFFFFFFFF DUP3 GT OR ISZERO PUSH2 0xBF2 JUMPI PUSH2 0xBF1 PUSH2 0xB9B JUMP JUMPDEST JUMPDEST DUP1 PUSH1 0x40 MSTORE POP POP POP JUMP JUMPDEST PUSH1 0x0 PUSH2 0xC05 PUSH2 0xB40 JUMP JUMPDEST SWAP1 POP PUSH2 0xC11 DUP3 DUP3 PUSH2 0xBCA JUMP JUMPDEST SWAP2 SWAP1 POP JUMP JUMPDEST PUSH1 0x0 PUSH8 0xFFFFFFFFFFFFFFFF DUP3 GT ISZERO PUSH2 0xC31 JUMPI PUSH2 0xC30 PUSH2 0xB9B JUMP JUMPDEST JUMPDEST PUSH2 0xC3A DUP3 PUSH2 0xB8A JUMP JUMPDEST SWAP1 POP PUSH1 0x20 DUP2 ADD SWAP1 POP SWAP2 SWAP1 POP JUMP JUMPDEST DUP3 DUP2 DUP4 CALLDATACOPY PUSH1 0x0 DUP4 DUP4 ADD MSTORE POP POP POP JUMP JUMPDEST PUSH1 0x0 PUSH2 0xC69 PUSH2 0xC64 DUP5 PUSH2 0xC16 JUMP JUMPDEST PUSH2 0xBFB JUMP JUMPDEST SWAP1 POP DUP3 DUP2 MSTORE PUSH1 0x20 DUP2 ADD DUP5 DUP5 DUP5 ADD GT ISZERO PUSH2 0xC85 JUMPI PUSH2 0xC84 PUSH2 0xB85 JUMP JUMPDEST JUMPDEST PUSH2 0xC90 DUP5 DUP3 DUP6 PUSH2 0xC47 JUMP JUMPDEST POP SWAP4 SWAP3 POP POP POP JUMP JUMPDEST PUSH1 0x0 DUP3 PUSH1 0x1F DUP4 ADD SLT PUSH2 0xCAD JUMPI PUSH2 0xCAC PUSH2 0xB80 JUMP JUMPDEST JUMPDEST DUP2 CALLDATALOAD PUSH2 0xCBD DUP5 DUP3 PUSH1 0x20 DUP7 ADD PUSH2 0xC56 JUMP JUMPDEST SWAP2 POP POP SWAP3 SWAP2 POP POP JUMP JUMPDEST PUSH1 0x0 DUP1 PUSH1 0x0 PUSH1 0x60 DUP5 DUP7 SUB SLT ISZERO PUSH2 0xCDF JUMPI PUSH2 0xCDE PUSH2 0xB4A JUMP JUMPDEST JUMPDEST PUSH1 0x0 PUSH2 0xCED DUP7 DUP3 DUP8 ADD PUSH2 0xB6B JUMP JUMPDEST SWAP4 POP POP PUSH1 0x20 DUP5 ADD CALLDATALOAD PUSH8 0xFFFFFFFFFFFFFFFF DUP2 GT ISZERO PUSH2 0xD0E JUMPI PUSH2 0xD0D PUSH2 0xB4F JUMP JUMPDEST JUMPDEST PUSH2 0xD1A DUP7 DUP3 DUP8 ADD PUSH2 0xC98 JUMP JUMPDEST SWAP3 POP POP PUSH1 0x40 DUP5 ADD CALLDATALOAD PUSH8 0xFFFFFFFFFFFFFFFF DUP2 GT ISZERO PUSH2 0xD3B JUMPI PUSH2 0xD3A PUSH2 0xB4F JUMP JUMPDEST JUMPDEST PUSH2 0xD47 DUP7 DUP3 DUP8 ADD PUSH2 0xC98 JUMP JUMPDEST SWAP2 POP POP SWAP3 POP SWAP3 POP SWAP3 JUMP JUMPDEST PUSH1 0x0 DUP1 PUSH1 0x40 DUP4 DUP6 SUB SLT ISZERO PUSH2 0xD68 JUMPI PUSH2 0xD67 PUSH2 0xB4A JUMP JUMPDEST JUMPDEST PUSH1 0x0 PUSH2 0xD76 DUP6 DUP3 DUP7 ADD PUSH2 0xB6B JUMP JUMPDEST SWAP3 POP POP PUSH1 0x20 DUP4 ADD CALLDATALOAD PUSH8 0xFFFFFFFFFFFFFFFF DUP2 GT ISZERO PUSH2 0xD97 JUMPI PUSH2 0xD96 PUSH2 0xB4F JUMP JUMPDEST JUMPDEST PUSH2 0xDA3 DUP6 DUP3 DUP7 ADD PUSH2 0xC98 JUMP JUMPDEST SWAP2 POP POP SWAP3 POP SWAP3 SWAP1 POP JUMP JUMPDEST PUSH1 0x0 DUP3 DUP3 MSTORE PUSH1 0x20 DUP3 ADD SWAP1 POP SWAP3 SWAP2 POP POP JUMP JUMPDEST PUSH32 0x55736572206E6F74207265676973746572656400000000000000000000000000 PUSH1 0x0 DUP3 ADD MSTORE POP JUMP JUMPDEST PUSH1 0x0 PUSH2 0xDF4 PUSH1 0x13 DUP4 PUSH2 0xDAD JUMP JUMPDEST SWAP2 POP PUSH2 0xDFF DUP3 PUSH2 0xDBE JUMP JUMPDEST PUSH1 0x20 DUP3 ADD SWAP1 POP SWAP2 SWAP1 POP JUMP JUMPDEST PUSH1 0x0 PUSH1 0x20 DUP3 ADD SWAP1 POP DUP2 DUP2 SUB PUSH1 0x0 DUP4 ADD MSTORE PUSH2 0xE23 DUP2 PUSH2 0xDE7 JUMP JUMPDEST SWAP1 POP SWAP2 SWAP1 POP JUMP JUMPDEST PUSH32 0x4E487B7100000000000000000000000000000000000000000000000000000000 PUSH1 0x0 MSTORE PUSH1 0x32 PUSH1 0x4 MSTORE PUSH1 0x24 PUSH1 0x0 REVERT JUMPDEST PUSH32 0x4E487B7100000000000000000000000000000000000000000000000000000000 PUSH1 0x0 MSTORE PUSH1 0x11 PUSH1 0x4 MSTORE PUSH1 0x24 PUSH1 0x0 REVERT JUMPDEST PUSH1 0x0 PUSH2 0xE93 DUP3 PUSH2 0x9D7 JUMP JUMPDEST SWAP2 POP PUSH32 0xFFFFFFFFFFFFFFFFFFFFFFFFFFFFFFFFFFFFFFFFFFFFFFFFFFFFFFFFFFFFFFFF DUP3 SUB PUSH2 0xEC5 JUMPI PUSH2 0xEC4 PUSH2 0xE59 JUMP JUMPDEST JUMPDEST PUSH1 0x1 DUP3 ADD SWAP1 POP SWAP2 SWAP1 POP JUMP JUMPDEST PUSH32 0x41616468616172204964206E6F7420616C6C6F77656400000000000000000000 PUSH1 0x0 DUP3 ADD MSTORE POP JUMP JUMPDEST PUSH1 0x0 PUSH2 0xF06 PUSH1 0x16 DUP4 PUSH2 0xDAD JUMP JUMPDEST SWAP2 POP PUSH2 0xF11 DUP3 PUSH2 0xED0 JUMP JUMPDEST PUSH1 0x20 DUP3 ADD SWAP1 POP SWAP2 SWAP1 POP JUMP JUMPDEST PUSH1 0x0 PUSH1 0x20 DUP3 ADD SWAP1 POP DUP2 DUP2 SUB PUSH1 0x0 DUP4 ADD MSTORE PUSH2 0xF35 DUP2 PUSH2 0xEF9 JUMP JUMPDEST SWAP1 POP SWAP2 SWAP1 POP JUMP JUMPDEST PUSH32 0x416164686172207573657220616C726561647920726567697374657265640000 PUSH1 0x0 DUP3 ADD MSTORE POP JUMP JUMPDEST PUSH1 0x0 PUSH2 0xF72 PUSH1 0x1E DUP4 PUSH2 0xDAD JUMP JUMPDEST SWAP2 POP PUSH2 0xF7D DUP3 PUSH2 0xF3C JUMP JUMPDEST PUSH1 0x20 DUP3 ADD SWAP1 POP SWAP2 SWAP1 POP JUMP JUMPDEST PUSH1 0x0 PUSH1 0x20 DUP3 ADD SWAP1 POP DUP2 DUP2 SUB PUSH1 0x0 DUP4 ADD MSTORE PUSH2 0xFA1 DUP2 PUSH2 0xF65 JUMP JUMPDEST SWAP1 POP SWAP2 SWAP1 POP JUMP JUMPDEST PUSH32 0x596F7572206164647265737320697320616C7265616479207265676973746572 PUSH1 0x0 DUP3 ADD MSTORE PUSH32 0x6564000000000000000000000000000000000000000000000000000000000000 PUSH1 0x20 DUP3 ADD MSTORE POP JUMP JUMPDEST PUSH1 0x0 PUSH2 0x1004 PUSH1 0x22 DUP4 PUSH2 0xDAD JUMP JUMPDEST SWAP2 POP PUSH2 0x100F DUP3 PUSH2 0xFA8 JUMP JUMPDEST PUSH1 0x40 DUP3 ADD SWAP1 POP SWAP2 SWAP1 POP JUMP JUMPDEST PUSH1 0x0 PUSH1 0x20 DUP3 ADD SWAP1 POP DUP2 DUP2 SUB PUSH1 0x0 DUP4 ADD MSTORE PUSH2 0x1033 DUP2 PUSH2 0xFF7 JUMP JUMPDEST SWAP1 POP SWAP2 SWAP1 POP JUMP JUMPDEST PUSH1 0x0 DUP2 MLOAD SWAP1 POP SWAP2 SWAP1 POP JUMP JUMPDEST PUSH32 0x4E487B7100000000000000000000000000000000000000000000000000000000 PUSH1 0x0 MSTORE PUSH1 0x22 PUSH1 0x4 MSTORE PUSH1 0x24 PUSH1 0x0 REVERT JUMPDEST PUSH1 0x0 PUSH1 0x2 DUP3 DIV SWAP1 POP PUSH1 0x1 DUP3 AND DUP1 PUSH2 0x108C JUMPI PUSH1 0x7F DUP3 AND SWAP2 POP JUMPDEST PUSH1 0x20 DUP3 LT DUP2 SUB PUSH2 0x109F JUMPI PUSH2 0x109E PUSH2 0x1045 JUMP JUMPDEST JUMPDEST POP SWAP2 SWAP1 POP JUMP JUMPDEST PUSH1 0x0 DUP2 SWAP1 POP DUP2 PUSH1 0x0 MSTORE PUSH1 0x20 PUSH1 0x0 KECCAK256 SWAP1 POP SWAP2 SWAP1 POP JUMP JUMPDEST PUSH1 0x0 PUSH1 0x20 PUSH1 0x1F DUP4 ADD DIV SWAP1 POP SWAP2 SWAP1 POP JUMP JUMPDEST PUSH1 0x0 DUP3 DUP3 SHL SWAP1 POP SWAP3 SWAP2 POP POP JUMP JUMPDEST PUSH1 0x0 PUSH1 0x8 DUP4 MUL PUSH2 0x1107 PUSH32 0xFFFFFFFFFFFFFFFFFFFFFFFFFFFFFFFFFFFFFFFFFFFFFFFFFFFFFFFFFFFFFFFF DUP3 PUSH2 0x10CA JUMP JUMPDEST PUSH2 0x1111 DUP7 DUP4 PUSH2 0x10CA JUMP JUMPDEST SWAP6 POP DUP1 NOT DUP5 AND SWAP4 POP DUP1 DUP7 AND DUP5 OR SWAP3 POP POP POP SWAP4 SWAP3 POP POP POP JUMP JUMPDEST PUSH1 0x0 DUP2 SWAP1 POP SWAP2 SWAP1 POP JUMP JUMPDEST PUSH1 0x0 PUSH2 0x114E PUSH2 0x1149 PUSH2 0x1144 DUP5 PUSH2 0x9D7 JUMP JUMPDEST PUSH2 0x1129 JUMP JUMPDEST PUSH2 0x9D7 JUMP JUMPDEST SWAP1 POP SWAP2 SWAP1 POP JUMP JUMPDEST PUSH1 0x0 DUP2 SWAP1 POP SWAP2 SWAP1 POP JUMP JUMPDEST PUSH2 0x1168 DUP4 PUSH2 0x1133 JUMP JUMPDEST PUSH2 0x117C PUSH2 0x1174 DUP3 PUSH2 0x1155 JUMP JUMPDEST DUP5 DUP5 SLOAD PUSH2 0x10D7 JUMP JUMPDEST DUP3 SSTORE POP POP POP POP JUMP JUMPDEST PUSH1 0x0 SWAP1 JUMP JUMPDEST PUSH2 0x1191 PUSH2 0x1184 JUMP JUMPDEST PUSH2 0x119C DUP2 DUP5 DUP5 PUSH2 0x115F JUMP JUMPDEST POP POP POP JUMP JUMPDEST JUMPDEST DUP2 DUP2 LT ISZERO PUSH2 0x11C0 JUMPI PUSH2 0x11B5 PUSH1 0x0 DUP3 PUSH2 0x1189 JUMP JUMPDEST PUSH1 0x1 DUP2 ADD SWAP1 POP PUSH2 0x11A2 JUMP JUMPDEST POP POP JUMP JUMPDEST PUSH1 0x1F DUP3 GT ISZERO PUSH2 0x1205 JUMPI PUSH2 0x11D6 DUP2 PUSH2 0x10A5 JUMP JUMPDEST PUSH2 0x11DF DUP5 PUSH2 0x10BA JUMP JUMPDEST DUP2 ADD PUSH1 0x20 DUP6 LT ISZERO PUSH2 0x11EE JUMPI DUP2 SWAP1 POP JUMPDEST PUSH2 0x1202 PUSH2 0x11FA DUP6 PUSH2 0x10BA JUMP JUMPDEST DUP4 ADD DUP3 PUSH2 0x11A1 JUMP JUMPDEST POP POP JUMPDEST POP POP POP JUMP JUMPDEST PUSH1 0x0 DUP3 DUP3 SHR SWAP1 POP SWAP3 SWAP2 POP POP JUMP JUMPDEST PUSH1 0x0 PUSH2 0x1228 PUSH1 0x0 NOT DUP5 PUSH1 0x8 MUL PUSH2 0x120A JUMP JUMPDEST NOT DUP1 DUP4 AND SWAP2 POP POP SWAP3 SWAP2 POP POP JUMP JUMPDEST PUSH1 0x0 PUSH2 0x1241 DUP4 DUP4 PUSH2 0x1217 JUMP JUMPDEST SWAP2 POP DUP3 PUSH1 0x2 MUL DUP3 OR SWAP1 POP SWAP3 SWAP2 POP POP JUMP JUMPDEST PUSH2 0x125A DUP3 PUSH2 0x103A JUMP JUMPDEST PUSH8 0xFFFFFFFFFFFFFFFF DUP2 GT ISZERO PUSH2 0x1273 JUMPI PUSH2 0x1272 PUSH2 0xB9B JUMP JUMPDEST JUMPDEST PUSH2 0x127D DUP3 SLOAD PUSH2 0x1074 JUMP JUMPDEST PUSH2 0x1288 DUP3 DUP3 DUP6 PUSH2 0x11C4 JUMP JUMPDEST PUSH1 0x0 PUSH1 0x20 SWAP1 POP PUSH1 0x1F DUP4 GT PUSH1 0x1 DUP2 EQ PUSH2 0x12BB JUMPI PUSH1 0x0 DUP5 ISZERO PUSH2 0x12A9 JUMPI DUP3 DUP8 ADD MLOAD SWAP1 POP JUMPDEST PUSH2 0x12B3 DUP6 DUP3 PUSH2 0x1235 JUMP JUMPDEST DUP7 SSTORE POP PUSH2 0x131B JUMP JUMPDEST PUSH1 0x1F NOT DUP5 AND PUSH2 0x12C9 DUP7 PUSH2 0x10A5 JUMP JUMPDEST PUSH1 0x0 JUMPDEST DUP3 DUP2 LT ISZERO PUSH2 0x12F1 JUMPI DUP5 DUP10 ADD MLOAD DUP3 SSTORE PUSH1 0x1 DUP3 ADD SWAP2 POP PUSH1 0x20 DUP6 ADD SWAP5 POP PUSH1 0x20 DUP2 ADD SWAP1 POP PUSH2 0x12CC JUMP JUMPDEST DUP7 DUP4 LT ISZERO PUSH2 0x130E JUMPI DUP5 DUP10 ADD MLOAD PUSH2 0x130A PUSH1 0x1F DUP10 AND DUP3 PUSH2 0x1217 JUMP JUMPDEST DUP4 SSTORE POP JUMPDEST PUSH1 0x1 PUSH1 0x2 DUP9 MUL ADD DUP9 SSTORE POP POP POP JUMPDEST POP POP POP POP POP POP JUMP JUMPDEST PUSH1 0x0 JUMPDEST DUP4 DUP2 LT ISZERO PUSH2 0x1341 JUMPI DUP1 DUP3 ADD MLOAD DUP2 DUP5 ADD MSTORE PUSH1 0x20 DUP2 ADD SWAP1 POP PUSH2 0x1326 JUMP JUMPDEST PUSH1 0x0 DUP5 DUP5 ADD MSTORE POP POP POP POP JUMP JUMPDEST PUSH1 0x0 PUSH2 0x1358 DUP3 PUSH2 0x103A JUMP JUMPDEST PUSH2 0x1362 DUP2 DUP6 PUSH2 0xDAD JUMP JUMPDEST SWAP4 POP PUSH2 0x1372 DUP2 DUP6 PUSH1 0x20 DUP7 ADD PUSH2 0x1323 JUMP JUMPDEST PUSH2 0x137B DUP2 PUSH2 0xB8A JUMP JUMPDEST DUP5 ADD SWAP2 POP POP SWAP3 SWAP2 POP POP JUMP JUMPDEST PUSH1 0x0 PUSH1 0x20 DUP3 ADD SWAP1 POP DUP2 DUP2 SUB PUSH1 0x0 DUP4 ADD MSTORE PUSH2 0x13A0 DUP2 DUP5 PUSH2 0x134D JUMP JUMPDEST SWAP1 POP SWAP3 SWAP2 POP POP JUMP JUMPDEST PUSH1 0x0 DUP2 SLOAD PUSH2 0x13B5 DUP2 PUSH2 0x1074 JUMP JUMPDEST PUSH2 0x13BF DUP2 DUP7 PUSH2 0xDAD JUMP JUMPDEST SWAP5 POP PUSH1 0x1 DUP3 AND PUSH1 0x0 DUP2 EQ PUSH2 0x13DA JUMPI PUSH1 0x1 DUP2 EQ PUSH2 0x13F0 JUMPI PUSH2 0x1423 JUMP JUMPDEST PUSH1 0xFF NOT DUP4 AND DUP7 MSTORE DUP2 ISZERO ISZERO PUSH1 0x20 MUL DUP7 ADD SWAP4 POP PUSH2 0x1423 JUMP JUMPDEST PUSH2 0x13F9 DUP6 PUSH2 0x10A5 JUMP JUMPDEST PUSH1 0x0 JUMPDEST DUP4 DUP2 LT ISZERO PUSH2 0x141B JUMPI DUP2 SLOAD DUP2 DUP10 ADD MSTORE PUSH1 0x1 DUP3 ADD SWAP2 POP PUSH1 0x20 DUP2 ADD SWAP1 POP PUSH2 0x13FC JUMP JUMPDEST DUP1 DUP9 ADD SWAP6 POP POP POP JUMPDEST POP POP POP SWAP3 SWAP2 POP POP JUMP JUMPDEST PUSH1 0x0 PUSH1 0x20 DUP3 ADD SWAP1 POP DUP2 DUP2 SUB PUSH1 0x0 DUP4 ADD MSTORE PUSH2 0x1446 DUP2 DUP5 PUSH2 0x13A8 JUMP JUMPDEST SWAP1 POP SWAP3 SWAP2 POP POP JUMP JUMPDEST PUSH32 0x46696E6765727072696E7420566572696669636174696F6E204661696C656400 PUSH1 0x0 DUP3 ADD MSTORE POP JUMP JUMPDEST PUSH1 0x0 PUSH2 0x1484 PUSH1 0x1F DUP4 PUSH2 0xDAD JUMP JUMPDEST SWAP2 POP PUSH2 0x148F DUP3 PUSH2 0x144E JUMP JUMPDEST PUSH1 0x20 DUP3 ADD SWAP1 POP SWAP2 SWAP1 POP JUMP JUMPDEST PUSH1 0x0 PUSH1 0x20 DUP3 ADD SWAP1 POP DUP2 DUP2 SUB PUSH1 0x0 DUP4 ADD MSTORE PUSH2 0x14B3 DUP2 PUSH2 0x1477 JUMP JUMPDEST SWAP1 POP SWAP2 SWAP1 POP JUMP JUMPDEST PUSH32 0x496E73756666696369656E742062616C616E6365000000000000000000000000 PUSH1 0x0 DUP3 ADD MSTORE POP JUMP JUMPDEST PUSH1 0x0 PUSH2 0x14F0 PUSH1 0x14 DUP4 PUSH2 0xDAD JUMP JUMPDEST SWAP2 POP PUSH2 0x14FB DUP3 PUSH2 0x14BA JUMP JUMPDEST PUSH1 0x20 DUP3 ADD SWAP1 POP SWAP2 SWAP1 POP JUMP JUMPDEST PUSH1 0x0 PUSH1 0x20 DUP3 ADD SWAP1 POP DUP2 DUP2 SUB PUSH1 0x0 DUP4 ADD MSTORE PUSH2 0x151F DUP2 PUSH2 0x14E3 JUMP JUMPDEST SWAP1 POP SWAP2 SWAP1 POP JUMP INVALID LOG2 PUSH5 0x6970667358 0x22 SLT KECCAK256 0xB8 0xE6 0xB7 0x4D DUP16 0xA5 0xA6 0x29 DUP1 0xC5 TLOAD CALL SSTORE PUSH21 0xA90D6B959A388F5850E1BC2415824CA7EC564736F PUSH13 0x63430008180033000000000000 "},"methodIdentifiers":{"getBalance()":"12065fe0","getTransactions()":"83920e90","register(uint256,string,string)":"8d28dda8","transfer(uint256,string)":"ca32ab86"}}}}}